{
  "_format": "hh-sol-artifact-1",
  "contractName": "Akaza",
  "sourceName": "contracts/Akaza.sol",
  "abi": [
    {
      "inputs": [],
      "stateMutability": "nonpayable",
      "type": "constructor"
    },
    {
      "anonymous": false,
      "inputs": [
        {
          "indexed": true,
          "internalType": "address",
          "name": "owner",
          "type": "address"
        },
        {
          "indexed": true,
          "internalType": "address",
          "name": "spender",
          "type": "address"
        },
        {
          "indexed": false,
          "internalType": "uint256",
          "name": "value",
          "type": "uint256"
        }
      ],
      "name": "Approval",
      "type": "event"
    },
    {
      "anonymous": false,
      "inputs": [
        {
          "indexed": true,
          "internalType": "address",
          "name": "from",
          "type": "address"
        },
        {
          "indexed": true,
          "internalType": "address",
          "name": "to",
          "type": "address"
        },
        {
          "indexed": false,
          "internalType": "uint256",
          "name": "value",
          "type": "uint256"
        }
      ],
      "name": "Transfer",
      "type": "event"
    },
    {
      "inputs": [],
      "name": "_totalSupply",
      "outputs": [
        {
          "internalType": "uint256",
          "name": "",
          "type": "uint256"
        }
      ],
      "stateMutability": "view",
      "type": "function"
    },
    {
      "inputs": [
        {
          "internalType": "address",
          "name": "owner",
          "type": "address"
        },
        {
          "internalType": "address",
          "name": "spender",
          "type": "address"
        }
      ],
      "name": "allowance",
      "outputs": [
        {
          "internalType": "uint256",
          "name": "",
          "type": "uint256"
        }
      ],
      "stateMutability": "view",
      "type": "function"
    },
    {
      "inputs": [
        {
          "internalType": "address",
          "name": "spender",
          "type": "address"
        },
        {
          "internalType": "uint256",
          "name": "amount",
          "type": "uint256"
        }
      ],
      "name": "approve",
      "outputs": [
        {
          "internalType": "bool",
          "name": "",
          "type": "bool"
        }
      ],
      "stateMutability": "nonpayable",
      "type": "function"
    },
    {
      "inputs": [
        {
          "internalType": "address",
          "name": "account",
          "type": "address"
        }
      ],
      "name": "balanceOf",
      "outputs": [
        {
          "internalType": "uint256",
          "name": "",
          "type": "uint256"
        }
      ],
      "stateMutability": "view",
      "type": "function"
    },
    {
      "inputs": [
        {
          "internalType": "address",
          "name": "receiver",
          "type": "address"
        }
      ],
      "name": "buyToken",
      "outputs": [],
      "stateMutability": "payable",
      "type": "function"
    },
    {
      "inputs": [],
      "name": "decimals",
      "outputs": [
        {
          "internalType": "uint8",
          "name": "",
          "type": "uint8"
        }
      ],
      "stateMutability": "view",
      "type": "function"
    },
    {
      "inputs": [
        {
          "internalType": "address",
          "name": "spender",
          "type": "address"
        },
        {
          "internalType": "uint256",
          "name": "subtractedValue",
          "type": "uint256"
        }
      ],
      "name": "decreaseAllowance",
      "outputs": [
        {
          "internalType": "bool",
          "name": "",
          "type": "bool"
        }
      ],
      "stateMutability": "nonpayable",
      "type": "function"
    },
    {
      "inputs": [
        {
          "internalType": "address",
          "name": "spender",
          "type": "address"
        },
        {
          "internalType": "uint256",
          "name": "addedValue",
          "type": "uint256"
        }
      ],
      "name": "increaseAllowance",
      "outputs": [
        {
          "internalType": "bool",
          "name": "",
          "type": "bool"
        }
      ],
      "stateMutability": "nonpayable",
      "type": "function"
    },
    {
      "inputs": [
        {
          "internalType": "address",
          "name": "to",
          "type": "address"
        },
        {
          "internalType": "uint256",
          "name": "amount",
          "type": "uint256"
        }
      ],
      "name": "mint",
      "outputs": [],
      "stateMutability": "nonpayable",
      "type": "function"
    },
    {
      "inputs": [],
      "name": "name",
      "outputs": [
        {
          "internalType": "string",
          "name": "",
          "type": "string"
        }
      ],
      "stateMutability": "view",
      "type": "function"
    },
    {
      "inputs": [],
      "name": "owner",
      "outputs": [
        {
          "internalType": "address",
          "name": "",
          "type": "address"
        }
      ],
      "stateMutability": "view",
      "type": "function"
    },
    {
      "inputs": [],
      "name": "symbol",
      "outputs": [
        {
          "internalType": "string",
          "name": "",
          "type": "string"
        }
      ],
      "stateMutability": "view",
      "type": "function"
    },
    {
      "inputs": [],
      "name": "totalSupply",
      "outputs": [
        {
          "internalType": "uint256",
          "name": "",
          "type": "uint256"
        }
      ],
      "stateMutability": "view",
      "type": "function"
    },
    {
      "inputs": [
        {
          "internalType": "address",
          "name": "to",
          "type": "address"
        },
        {
          "internalType": "uint256",
          "name": "amount",
          "type": "uint256"
        }
      ],
      "name": "transfer",
      "outputs": [
        {
          "internalType": "bool",
          "name": "",
          "type": "bool"
        }
      ],
      "stateMutability": "nonpayable",
      "type": "function"
    },
    {
      "inputs": [
        {
          "internalType": "address",
          "name": "from",
          "type": "address"
        },
        {
          "internalType": "address",
          "name": "to",
          "type": "address"
        },
        {
          "internalType": "uint256",
          "name": "amount",
          "type": "uint256"
        }
      ],
      "name": "transferFrom",
      "outputs": [
        {
          "internalType": "bool",
          "name": "",
          "type": "bool"
        }
      ],
      "stateMutability": "nonpayable",
      "type": "function"
    }
  ],
  "bytecode": "0x608060405269d3c21bcecceda10000006007553480156200001f57600080fd5b506040518060400160405280600581526020017f416b617a610000000000000000000000000000000000000000000000000000008152506040518060400160405280600381526020017f414b5a00000000000000000000000000000000000000000000000000000000008152508160039080519060200190620000a4929190620002e4565b508060049080519060200190620000bd929190620002e4565b505050620000d4336007546200016160201b60201c565b33600560006101000a81548173ffffffffffffffffffffffffffffffffffffffff021916908373ffffffffffffffffffffffffffffffffffffffff160217905550600754600660003373ffffffffffffffffffffffffffffffffffffffff1673ffffffffffffffffffffffffffffffffffffffff1681526020019081526020016000208190555062000540565b600073ffffffffffffffffffffffffffffffffffffffff168273ffffffffffffffffffffffffffffffffffffffff161415620001d4576040517f08c379a0000000000000000000000000000000000000000000000000000000008152600401620001cb90620003cc565b60405180910390fd5b620001e860008383620002da60201b60201c565b8060026000828254620001fc91906200041c565b92505081905550806000808473ffffffffffffffffffffffffffffffffffffffff1673ffffffffffffffffffffffffffffffffffffffff16815260200190815260200160002060008282546200025391906200041c565b925050819055508173ffffffffffffffffffffffffffffffffffffffff16600073ffffffffffffffffffffffffffffffffffffffff167fddf252ad1be2c89b69c2b068fc378daa952ba7f163c4a11628f55a4df523b3ef83604051620002ba9190620003ee565b60405180910390a3620002d660008383620002df60201b60201c565b5050565b505050565b505050565b828054620002f29062000483565b90600052602060002090601f01602090048101928262000316576000855562000362565b82601f106200033157805160ff191683800117855562000362565b8280016001018555821562000362579182015b828111156200036157825182559160200191906001019062000344565b5b50905062000371919062000375565b5090565b5b808211156200039057600081600090555060010162000376565b5090565b6000620003a3601f836200040b565b9150620003b08262000517565b602082019050919050565b620003c68162000479565b82525050565b60006020820190508181036000830152620003e78162000394565b9050919050565b6000602082019050620004056000830184620003bb565b92915050565b600082825260208201905092915050565b6000620004298262000479565b9150620004368362000479565b9250827fffffffffffffffffffffffffffffffffffffffffffffffffffffffffffffffff038211156200046e576200046d620004b9565b5b828201905092915050565b6000819050919050565b600060028204905060018216806200049c57607f821691505b60208210811415620004b357620004b2620004e8565b5b50919050565b7f4e487b7100000000000000000000000000000000000000000000000000000000600052601160045260246000fd5b7f4e487b7100000000000000000000000000000000000000000000000000000000600052602260045260246000fd5b7f45524332303a206d696e7420746f20746865207a65726f206164647265737300600082015250565b61197280620005506000396000f3fe6080604052600436106100e85760003560e01c806340c10f191161008a57806395d89b411161005957806395d89b41146102fd578063a457c2d714610328578063a9059cbb14610365578063dd62ed3e146103a2576100e8565b806340c10f191461025057806370a08231146102795780637e72fb52146102b65780638da5cb5b146102d2576100e8565b806323b872dd116100c657806323b872dd14610180578063313ce567146101bd57806339509351146101e85780633eaaf86b14610225576100e8565b806306fdde03146100ed578063095ea7b31461011857806318160ddd14610155575b600080fd5b3480156100f957600080fd5b506101026103df565b60405161010f91906112b2565b60405180910390f35b34801561012457600080fd5b5061013f600480360381019061013a9190611069565b610471565b60405161014c9190611297565b60405180910390f35b34801561016157600080fd5b5061016a610494565b6040516101779190611414565b60405180910390f35b34801561018c57600080fd5b506101a760048036038101906101a29190611016565b61049e565b6040516101b49190611297565b60405180910390f35b3480156101c957600080fd5b506101d26104cd565b6040516101df919061142f565b60405180910390f35b3480156101f457600080fd5b5061020f600480360381019061020a9190611069565b6104d6565b60405161021c9190611297565b60405180910390f35b34801561023157600080fd5b5061023a610580565b6040516102479190611414565b60405180910390f35b34801561025c57600080fd5b5061027760048036038101906102729190611069565b610586565b005b34801561028557600080fd5b506102a0600480360381019061029b9190610fa9565b610624565b6040516102ad9190611414565b60405180910390f35b6102d060048036038101906102cb9190610fa9565b61066c565b005b3480156102de57600080fd5b506102e76106e9565b6040516102f4919061127c565b60405180910390f35b34801561030957600080fd5b5061031261070f565b60405161031f91906112b2565b60405180910390f35b34801561033457600080fd5b5061034f600480360381019061034a9190611069565b6107a1565b60405161035c9190611297565b60405180910390f35b34801561037157600080fd5b5061038c60048036038101906103879190611069565b61088b565b6040516103999190611297565b60405180910390f35b3480156103ae57600080fd5b506103c960048036038101906103c49190610fd6565b6108ae565b6040516103d69190611414565b60405180910390f35b6060600380546103ee9061159e565b80601f016020809104026020016040519081016040528092919081815260200182805461041a9061159e565b80156104675780601f1061043c57610100808354040283529160200191610467565b820191906000526020600020905b81548152906001019060200180831161044a57829003601f168201915b5050505050905090565b60008061047c610935565b905061048981858561093d565b600191505092915050565b6000600254905090565b6000806104a9610935565b90506104b6858285610b08565b6104c1858585610b94565b60019150509392505050565b60006012905090565b6000806104e1610935565b9050610575818585600160008673ffffffffffffffffffffffffffffffffffffffff1673ffffffffffffffffffffffffffffffffffffffff16815260200190815260200160002060008973ffffffffffffffffffffffffffffffffffffffff1673ffffffffffffffffffffffffffffffffffffffff168152602001908152602001600020546105709190611466565b61093d565b600191505092915050565b60075481565b600560009054906101000a900473ffffffffffffffffffffffffffffffffffffffff1673ffffffffffffffffffffffffffffffffffffffff163373ffffffffffffffffffffffffffffffffffffffff1614610616576040517f08c379a000000000000000000000000000000000000000000000000000000000815260040161060d90611394565b60405180910390fd5b6106208282610e15565b5050565b60008060008373ffffffffffffffffffffffffffffffffffffffff1673ffffffffffffffffffffffffffffffffffffffff168152602001908152602001600020549050919050565b60003410156106b0576040517f08c379a00000000000000000000000000000000000000000000000000000000081526004016106a790611354565b60405180910390fd5b60006103e8346106c091906114bc565b90506000670de0b6b3a7640000826106d891906114bc565b90506106e48382610e15565b505050565b600560009054906101000a900473ffffffffffffffffffffffffffffffffffffffff1681565b60606004805461071e9061159e565b80601f016020809104026020016040519081016040528092919081815260200182805461074a9061159e565b80156107975780601f1061076c57610100808354040283529160200191610797565b820191906000526020600020905b81548152906001019060200180831161077a57829003601f168201915b5050505050905090565b6000806107ac610935565b90506000600160008373ffffffffffffffffffffffffffffffffffffffff1673ffffffffffffffffffffffffffffffffffffffff16815260200190815260200160002060008673ffffffffffffffffffffffffffffffffffffffff1673ffffffffffffffffffffffffffffffffffffffff16815260200190815260200160002054905083811015610872576040517f08c379a0000000000000000000000000000000000000000000000000000000008152600401610869906113d4565b60405180910390fd5b61087f828686840361093d565b60019250505092915050565b600080610896610935565b90506108a3818585610b94565b600191505092915050565b6000600160008473ffffffffffffffffffffffffffffffffffffffff1673ffffffffffffffffffffffffffffffffffffffff16815260200190815260200160002060008373ffffffffffffffffffffffffffffffffffffffff1673ffffffffffffffffffffffffffffffffffffffff16815260200190815260200160002054905092915050565b600033905090565b600073ffffffffffffffffffffffffffffffffffffffff168373ffffffffffffffffffffffffffffffffffffffff1614156109ad576040517f08c379a00000000000000000000000000000000000000000000000000000000081526004016109a4906113b4565b60405180910390fd5b600073ffffffffffffffffffffffffffffffffffffffff168273ffffffffffffffffffffffffffffffffffffffff161415610a1d576040517f08c379a0000000000000000000000000000000000000000000000000000000008152600401610a14906112f4565b60405180910390fd5b80600160008573ffffffffffffffffffffffffffffffffffffffff1673ffffffffffffffffffffffffffffffffffffffff16815260200190815260200160002060008473ffffffffffffffffffffffffffffffffffffffff1673ffffffffffffffffffffffffffffffffffffffff168152602001908152602001600020819055508173ffffffffffffffffffffffffffffffffffffffff168373ffffffffffffffffffffffffffffffffffffffff167f8c5be1e5ebec7d5bd14f71427d1e84f3dd0314c0f7b2291e5b200ac8c7c3b92583604051610afb9190611414565b60405180910390a3505050565b6000610b1484846108ae565b90507fffffffffffffffffffffffffffffffffffffffffffffffffffffffffffffffff8114610b8e5781811015610b80576040517f08c379a0000000000000000000000000000000000000000000000000000000008152600401610b7790611314565b60405180910390fd5b610b8d848484840361093d565b5b50505050565b600073ffffffffffffffffffffffffffffffffffffffff168373ffffffffffffffffffffffffffffffffffffffff161415610c04576040517f08c379a0000000000000000000000000000000000000000000000000000000008152600401610bfb90611374565b60405180910390fd5b600073ffffffffffffffffffffffffffffffffffffffff168273ffffffffffffffffffffffffffffffffffffffff161415610c74576040517f08c379a0000000000000000000000000000000000000000000000000000000008152600401610c6b906112d4565b60405180910390fd5b610c7f838383610f75565b60008060008573ffffffffffffffffffffffffffffffffffffffff1673ffffffffffffffffffffffffffffffffffffffff16815260200190815260200160002054905081811015610d05576040517f08c379a0000000000000000000000000000000000000000000000000000000008152600401610cfc90611334565b60405180910390fd5b8181036000808673ffffffffffffffffffffffffffffffffffffffff1673ffffffffffffffffffffffffffffffffffffffff16815260200190815260200160002081905550816000808573ffffffffffffffffffffffffffffffffffffffff1673ffffffffffffffffffffffffffffffffffffffff1681526020019081526020016000206000828254610d989190611466565b925050819055508273ffffffffffffffffffffffffffffffffffffffff168473ffffffffffffffffffffffffffffffffffffffff167fddf252ad1be2c89b69c2b068fc378daa952ba7f163c4a11628f55a4df523b3ef84604051610dfc9190611414565b60405180910390a3610e0f848484610f7a565b50505050565b600073ffffffffffffffffffffffffffffffffffffffff168273ffffffffffffffffffffffffffffffffffffffff161415610e85576040517f08c379a0000000000000000000000000000000000000000000000000000000008152600401610e7c906113f4565b60405180910390fd5b610e9160008383610f75565b8060026000828254610ea39190611466565b92505081905550806000808473ffffffffffffffffffffffffffffffffffffffff1673ffffffffffffffffffffffffffffffffffffffff1681526020019081526020016000206000828254610ef89190611466565b925050819055508173ffffffffffffffffffffffffffffffffffffffff16600073ffffffffffffffffffffffffffffffffffffffff167fddf252ad1be2c89b69c2b068fc378daa952ba7f163c4a11628f55a4df523b3ef83604051610f5d9190611414565b60405180910390a3610f7160008383610f7a565b5050565b505050565b505050565b600081359050610f8e8161190e565b92915050565b600081359050610fa381611925565b92915050565b600060208284031215610fbf57610fbe61162e565b5b6000610fcd84828501610f7f565b91505092915050565b60008060408385031215610fed57610fec61162e565b5b6000610ffb85828601610f7f565b925050602061100c85828601610f7f565b9150509250929050565b60008060006060848603121561102f5761102e61162e565b5b600061103d86828701610f7f565b935050602061104e86828701610f7f565b925050604061105f86828701610f94565b9150509250925092565b600080604083850312156110805761107f61162e565b5b600061108e85828601610f7f565b925050602061109f85828601610f94565b9150509250929050565b6110b281611516565b82525050565b6110c181611528565b82525050565b60006110d28261144a565b6110dc8185611455565b93506110ec81856020860161156b565b6110f581611633565b840191505092915050565b600061110d602383611455565b915061111882611644565b604082019050919050565b6000611130602283611455565b915061113b82611693565b604082019050919050565b6000611153601d83611455565b915061115e826116e2565b602082019050919050565b6000611176602683611455565b91506111818261170b565b604082019050919050565b6000611199602183611455565b91506111a48261175a565b604082019050919050565b60006111bc602583611455565b91506111c7826117a9565b604082019050919050565b60006111df602183611455565b91506111ea826117f8565b604082019050919050565b6000611202602483611455565b915061120d82611847565b604082019050919050565b6000611225602583611455565b915061123082611896565b604082019050919050565b6000611248601f83611455565b9150611253826118e5565b602082019050919050565b61126781611554565b82525050565b6112768161155e565b82525050565b600060208201905061129160008301846110a9565b92915050565b60006020820190506112ac60008301846110b8565b92915050565b600060208201905081810360008301526112cc81846110c7565b905092915050565b600060208201905081810360008301526112ed81611100565b9050919050565b6000602082019050818103600083015261130d81611123565b9050919050565b6000602082019050818103600083015261132d81611146565b9050919050565b6000602082019050818103600083015261134d81611169565b9050919050565b6000602082019050818103600083015261136d8161118c565b9050919050565b6000602082019050818103600083015261138d816111af565b9050919050565b600060208201905081810360008301526113ad816111d2565b9050919050565b600060208201905081810360008301526113cd816111f5565b9050919050565b600060208201905081810360008301526113ed81611218565b9050919050565b6000602082019050818103600083015261140d8161123b565b9050919050565b6000602082019050611429600083018461125e565b92915050565b6000602082019050611444600083018461126d565b92915050565b600081519050919050565b600082825260208201905092915050565b600061147182611554565b915061147c83611554565b9250827fffffffffffffffffffffffffffffffffffffffffffffffffffffffffffffffff038211156114b1576114b06115d0565b5b828201905092915050565b60006114c782611554565b91506114d283611554565b9250817fffffffffffffffffffffffffffffffffffffffffffffffffffffffffffffffff048311821515161561150b5761150a6115d0565b5b828202905092915050565b600061152182611534565b9050919050565b60008115159050919050565b600073ffffffffffffffffffffffffffffffffffffffff82169050919050565b6000819050919050565b600060ff82169050919050565b60005b8381101561158957808201518184015260208101905061156e565b83811115611598576000848401525b50505050565b600060028204905060018216806115b657607f821691505b602082108114156115ca576115c96115ff565b5b50919050565b7f4e487b7100000000000000000000000000000000000000000000000000000000600052601160045260246000fd5b7f4e487b7100000000000000000000000000000000000000000000000000000000600052602260045260246000fd5b600080fd5b6000601f19601f8301169050919050565b7f45524332303a207472616e7366657220746f20746865207a65726f206164647260008201527f6573730000000000000000000000000000000000000000000000000000000000602082015250565b7f45524332303a20617070726f766520746f20746865207a65726f20616464726560008201527f7373000000000000000000000000000000000000000000000000000000000000602082015250565b7f45524332303a20696e73756666696369656e7420616c6c6f77616e6365000000600082015250565b7f45524332303a207472616e7366657220616d6f756e742065786365656473206260008201527f616c616e63650000000000000000000000000000000000000000000000000000602082015250565b7f596f752063616e6e6f74206d696e7420414b5a2077697468207a65726f20455460008201527f4800000000000000000000000000000000000000000000000000000000000000602082015250565b7f45524332303a207472616e736665722066726f6d20746865207a65726f20616460008201527f6472657373000000000000000000000000000000000000000000000000000000602082015250565b7f4f6e6c7920746865206f6e77657220697320616c6c6f77656420746f206d696e60008201527f7400000000000000000000000000000000000000000000000000000000000000602082015250565b7f45524332303a20617070726f76652066726f6d20746865207a65726f2061646460008201527f7265737300000000000000000000000000000000000000000000000000000000602082015250565b7f45524332303a2064656372656173656420616c6c6f77616e63652062656c6f7760008201527f207a65726f000000000000000000000000000000000000000000000000000000602082015250565b7f45524332303a206d696e7420746f20746865207a65726f206164647265737300600082015250565b61191781611516565b811461192257600080fd5b50565b61192e81611554565b811461193957600080fd5b5056fea2646970667358221220787e90e50a330c279c25441851c4e6ea17550785fa54f02b22eeac1bf793d88264736f6c63430008050033",
  "linkReferences": {},
  "deployedLinkReferences": {}
}